:030000000200BA41
:0C00BA00787FE4F6D8FD75813E0201015C
:100473003F065B4F666D7D077F6F777C395E7971D1
:100483000040761E7038375C733E783D6750376E98
:0B049300BF86DBCFE6EDFD87FFEF46E4
:1004F000093681838587898B8D8F91092880828435
:1005000086888A8C8E900721555923020403240182
:05051000310001330180
:10039500120575120448120648120216E53324FEAA
:1003A500600C146011240270F012062280EB12001A
:0E03B5000E12014680E312027C12000380DB70
:10031E008D80EF24FC601214601914602014602785
:10032E002407702B53A01F8026E5A0541F4480F590
:10033E00A0801CE5A0541F44A0F5A08012E5A05497
:10034E001F44C0F5A08008E5A0541F44E0F5A0535B
:03035E00A01F22BB
:100575007DFF7F0412031EE4FD0F12031E7DFF0F96
:0D05850012031E0F12031EE4FDFF02031EF1
:0903F000C4540F90047393F4FD52
:1003F900AE057401A807088002C333D8FCFD7F0647
:1004090012031EAD060F12031E1206677DFF7F073A
:0304190002031EBD
:0B0667000000007F0B7EBEDEFEDFFC0B
:010672002265
:1002D100E521540F90047393F4FD7F071203F9E5B0
:1002E100217F061203F07DBF7F051203F9E5225439
:1002F1000F90047393F4FD7F041203F9E5227F0349
:100301001203F07DBF7F021203F9900474E493F4A9
:0D031100FD7F011203F97DBFE4FF0203F937
:10044800E4FD7F8E12060EE4F50874282508F8E608
:10045800FF74212508F8E6FD12060E0508E508C315
:0B046800940340E67D807F8E02060EAC
:10053900E4F50874362508F8E6FF120361742125ED
:0D05490008F8A6070508E508C3940340E67E
:010556002282
:10062200120539E5217009D28C7D107F0512031E57
:030632000202D1F0
:10064800D2AFD2A9758901C28C758C3C758AAF224C
:03000B000203C32A
:1003C300C0E0C0D075D000C005C007758C3C758AED
:1003D300AF0531E531B4280CE4FD7F0512031E752A
:0D03E3003100C28CD007D005D0D0D0E03260
:100146001204C97FCC1205577F441205577FF4125B
:1001560005161204C97FCC1205577FBE1205571229
:1001660005C98F081205C97534008F35E535753513
:1001760000F534E5084235E534C4F854F0C868F5AE
:1001860034E535C4540F48F535AE34FF7C007D6444
:100196001201AF8E348F35E50875F071A4F5082588
:0801A60035F535E43534F5347C
:0101AE00222E
:100516008F09AF091509EF6019E533B4020512001A
:100526000E80EFE533B401051202D180E512027C9C
:0305360080E02240
:10000E00AE34AF357C007D0A1201C174732DF582BA
:10001E0074043CF583E493F4FD7F071203F9AE34C8
:10002E00AF357C007D641201C17E007F0ACFCDCF3B
:10003E00CECCCE1201C174732FF58274043EF583BB
:10004E00E493F4FD7F061203F9AE34AF357C037DE5
:10005E00E81201C17E007F64CFCDCFCECCCE12018F
:10006E00C174932FF58274043EF583E493F4FD7FFF
:10007E00051203F9AE34AF357C037DE81201C1746D
:10008E00732FF58274043EF583E493F4FD7F04121E
:10009E0003F97DBF7F021203F9900475E493F4FD1A
:0C00AE007F011203F97DBFE4FF0203F99B
:1002160020B0307F1412051620B02820B019E5331F
:10022600B4020512000E80F3E533B401051202D1C3
:1002360080E912027C80E4E533B40305753301805E
:1002460002053320B12F7F1412051620B12720B1E5
:1002560019E533B4020512000E80F3E533B4010547
:100266001202D180E912027C80E4E533B401047500
:06027600330322153322C0
:10027C00E53275F00A84E5F090047393F4FD7F0782
:10028C001203F9E53275F06484E5F075F00A849098
:10029C00047393F4FD7F061203F9E53275F0648460
:1002AC0090047393F4FD7F051203F97DBF7F021256
:1002BC0003F9900476E493F4FD7F011203F97DBFFA
:0502CC00E4FF0203F94C
:0600030012049E8F322260
:04067300D2A07F058D
:0806770000AE071FEE70F9222E
:0F065800D2A1120673C2A17F05120677C2A0229B
:0C067F00C2A1120673D2A17F050206770B
:1005E300C2A0A20092A17F05120677120673C2A0D1
:0705F300D2A17F050206778B
:0305FA0012041CCC
:1005FD00120673A2A19200C2A07F05120677A20077
:01060D0022CA
:02041C00AD072A
:10041E00E4FCC2A07F05120677ED30E704D2A1807E
:10042E0002C2A17F05120677D2A0ED25E0FD7F0561
:09043E001206770CBC08DBC2A019
:010447002292
:10059200E4FC120673ED25E0FD30A103430501C220
:0C05A200A07F051206770CBC08E8AF052E
:0105AE00222A
:10049E001206587F901205FA7F011205FA12067F96
:1004AE001206587F9112041C1205FD120592AD071B
:0A04BE00D2001205E312067FAF051D
:0104C8002211
:10063500E4FEC297EF1392A3EFC313FFD2970EBE4A
:0206450008F0BB
:010647002290
:10060E00C29300C29700D29300120635AF051206B0
:04061E0035C293222C
:10036100E4FDC29300C29700D29300120635E4FF68
:10037100C297EDC313FD30A303430580D2970FBF8E
:1003810008EEC29300C29700D29700C2A300D2A385
:0303910000AF05B5
:010394002246
:0405AF007F057E0046
:1005B300EF1FAA0670011E4A600BE4FDEDC3940C05
:0505C30050EE0D80F771
:0105C8002210
:02055700A907F2
:10055900E4FBC294E91392941205AFD294E9C31350
:0C056900F90BBB08ED7F057E000205B316
:1005C900E4FBC294ECC313FCD2943094034304803B
:0905D9001205AF0BBB08EBAF04E7
:0105E20022F6
:1004C900C200D2947F0C7E001205B3C2947F507E85
:1004D900001205B3D2947F0A7E001205B3A294924A
:0604E900001205AFA200A5
:0104EF0022EA
:1000C600020395E493A3F8E493A34003F68001F2B8
:1000D60008DFF48029E493A3F85407240CC8C3333B
:1000E600C4540F4420C8834004F456800146F6DF0A
:1000F600E4800B01020408102040809004F0E47EA6
:10010600019360BCA3FF543F30E509541FFEE493FE
:10011600A360010ECF54C025E060A840B8E493A3C5
:10012600FAE493A3F8E493A3C8C582C8CAC583CAF0
:10013600F0A3C8C582C8CAC583CADFE9DEE780BEA8
:0105150000E5
:1001AF00EF8DF0A4A8F0CF8CF0A428CE8DF0A42E64
:0201BF00FE221E
:1001C100BC000BBE0029EF8DF084FFADF022E4CC22
:1001D100F875F008EF2FFFEE33FEEC33FCEE9DECEB
:1001E100984005FCEE9DFE0FD5F0E9E4CEFD22ED31
:1001F100F8F5F0EE8420D21CFEADF075F008EF2F7B
:10020100FFED33FD4007985006D5F0F222C398FD6B
:050211000FD5F0EA2208
:00000001FF
